:0300000002037B7D
:0C037B00787FE4F6D8FD7581790203C29A
:1005400053877F759850438E40538EFE53890F43D7
:0F0550008920758BDC758DDCC2ABD28ED2AC22CC
:10002600538EF7759A50438E04759CDC438E1022CE
:10057E00D3EF9400EE940040147DB67C03ED1D7015
:0D058E00011CED4C70F7EF1F70E61E80E3BE
:01059B00223D
:0A003600C2AC8F993099FDD2AC22C4
:0604F8008B758A768977FE
:1004FE00E4FDFCAB75AA76A9778D828C8312040776
:0D050E00FF600A1200360DBD00010C80E6F2
:01051B0022BD
:0E059C00E4F5AF8F9BE59A30E1FB75AF0122CD
:06051C008B728A738974E2
:10052200E4FDFCAB72AA73A9748D828C831204075A
:0D053200FF600A12059C0DBD00010C80E663
:01053F002299
:1004AD0041542B43495053454E443D302C360D0A93
:1004BD00000D0A0041542B43495053454E443D30E5
:0604CD002C33380D0A007B
:10055F0002640000016A00016B0002660000026C79
:0A056F00000002680000026E0001A7
:10004600D2AF1205401200267FE87E0312057E120B
:10005600017CE5646003020172E56524FE7003021B
:1000660000EC0460030201727B007A00796A1200D8
:1000760003AF6A120036E56A2402604F24F4705E0C
:10008600AF6A12059CE56D6402456C702D7FD07ECB
:100096000712057E7FD07E0712057E7FD07E07126F
:1000A600057E7FD07E0712057E7FD07E0712057EF5
:1000B600056DE56D709C056C80987FE87E031205E2
:1000C6007E056DE56D708B056C8087E4F564F565DE
:1000D600C290F578757901F56CF56D020058AF6A36
:1000E60012059C020058E56E7075E56F14603604C3
:1000F600706D7BFF7A0479AD12051C7FF47E0112C8
:10010600057E756800756905740A2569F8E6FF12AB
:10011600059C0569E56970020568C39409E568945C
:100126000040E580317BFF7A0479C112051C7FF41B
:100136007E0112057E756800756905740A2569F8E1
:10014600E6FF12059C0569E56970020568C39429F6
:10015600E568940040E57BFF7A0479BE12051CE44D
:10016600F564F565F5787579010200587F327E00F1
:0601760012057E02005894
:030023000202E6F0
:1002E600C0E0C0F0C083C082C0D075D000C000C0DE
:1002F60001C002C003C004C005C006C00730984A4A
:10030600E579640145787042AF99EF24FD601D24BC
:10031600E3702E7E007F5A7D007B007A00790A12F8
:1003260004467508007509007F20801775640075FE
:1003360065027F031204D3C2987578007579008030
:1003460014AF991204D3C298800B309808E579450A
:10035600787002C298309902C299D007D006D005AB
:10036600D004D003D002D001D000D0D0D082D08328
:05037600D0F0D0E032E0
:0300430002024A6C
:10024A00C0E0C0F0C083C082C0D075D000C000C07A
:10025A0001C002C003C004C005C006C007E59A3049
:10026A00E049E579640145787041AF9BEF2402606B
:10027A001B2402702F7E007F5A7D007B007A007952
:10028A000A120446750800750900802A756400750B
:10029A0065017FFE1204D3539AFEB29775780075F2
:1002AA0079008015AF9B1204D3800BE59A30E009E0
:1002BA00E57945787003539AFEE59A30E103539A3B
:1002CA00FDD007D006D005D004D003D002D001D08B
:0C02DA0000D0D0D082D083D0F0D0E03231
:10000300E508B5090574FF020434740A2508F8E607
:100013001204340508E508C3945A4003E4F50822A2
:1004D300740A2509F8A6070509E509C3945A4003D8
:1004E300E4F509E509B5080C0508E508C3945A4085
:0504F30003E4F50822FE
:1004720041542B43574D4F44453D320D0A004154E0
:100482002B5253540D0A0041542B4349504D555899
:100492003D310D0A0041542B4349505345525645B4
:0B04A200523D312C323038300D0A0082
:040579000278000004
:10017C00020241C3E5719405E570648094804003EC
:10018C00020249E5706003020241E57114602A1411
:10019C006041146058146065240460030202417BC2
:1001AC00FF7A04797212051C7FE87E0312057E0526
:1001BC0071E57170BE057080BA7BFF7A047980128C
:1001CC00051C7FE87E0312057E0571E57170A405A0
:1001DC007080A07BFF7A04798912051C7FE87E036E
:1001EC0012057E0571E571708A05708086E4F5084C
:1001FC00F5090571E571702E057002017F757800A7
:10020C007579017BFF7A04799712051C7FE87E03D0
:10021C0012057E74072509F8E6B44B0DC2960571DC
:10022C00E5717002057002017FE4F570F571F578E7
:0D023C00F57902017FE4F570F57102017F94
:010249002292
:10038700020046E493A3F8E493A34003F68001F246
:1003970008DFF48029E493A3F85407240CC8C33377
:1003A700C4540F4420C8834004F456800146F6DF46
:1003B700E4800B010204081020408090055FE47E72
:1003C700019360BCA3FF543F30E509541FFEE4933B
:1003D700A360010ECF54C025E060A840B8E493A302
:1003E700FAE493A3F8E493A3C8C582C8CAC583CA2D
:1003F700F0A3C8C582C8CAC583CADFE9DEE780BEE5
:01057D00007D
:10040700BB010CE58229F582E5833AF583E02250AA
:1004170006E92582F8E622BBFE06E92582F8E222F4
:0D042700E58229F582E5833AF583E493220E
:10043400BB010689828A83F0225002F722BBFE01A7
:02044400F322A1
:10044600EF4E6012EF60010EEDBB010B89828A83CD
:10045600F0A3DFFCDEFA2289F05007F709DFFCA9DA
:0C046600F022BBFEFCF309DFFCA9F02231
:00000001FF
